{
  "contractName": "BinaryOption",
  "abi": [
    {
      "constant": true,
      "inputs": [
        {
          "name": "",
          "type": "uint256"
        }
      ],
      "name": "games",
      "outputs": [
        {
          "name": "gameId",
          "type": "uint256"
        },
        {
          "name": "startTime",
          "type": "uint256"
        },
        {
          "name": "endTime",
          "type": "uint256"
        },
        {
          "name": "result",
          "type": "uint256"
        },
        {
          "name": "upPoolAmount",
          "type": "uint256"
        },
        {
          "name": "downPoolAmount",
          "type": "uint256"
        },
        {
          "name": "upBettersCount",
          "type": "uint256"
        },
        {
          "name": "downBettersCount",
          "type": "uint256"
        }
      ],
      "payable": false,
      "stateMutability": "view",
      "type": "function"
    },
    {
      "constant": true,
      "inputs": [
        {
          "name": "",
          "type": "address"
        }
      ],
      "name": "gameBank",
      "outputs": [
        {
          "name": "",
          "type": "uint256"
        }
      ],
      "payable": false,
      "stateMutability": "view",
      "type": "function"
    },
    {
      "constant": true,
      "inputs": [],
      "name": "contractModifier",
      "outputs": [
        {
          "name": "",
          "type": "address"
        }
      ],
      "payable": false,
      "stateMutability": "view",
      "type": "function"
    },
    {
      "inputs": [],
      "payable": false,
      "stateMutability": "nonpayable",
      "type": "constructor"
    },
    {
      "payable": true,
      "stateMutability": "payable",
      "type": "fallback"
    },
    {
      "constant": false,
      "inputs": [],
      "name": "destroy",
      "outputs": [],
      "payable": false,
      "stateMutability": "nonpayable",
      "type": "function"
    },
    {
      "constant": false,
      "inputs": [
        {
          "name": "gameId",
          "type": "uint256"
        },
        {
          "name": "startTime",
          "type": "uint256"
        },
        {
          "name": "endTime",
          "type": "uint256"
        }
      ],
      "name": "addGame",
      "outputs": [
        {
          "name": "result",
          "type": "bool"
        }
      ],
      "payable": false,
      "stateMutability": "nonpayable",
      "type": "function"
    },
    {
      "constant": true,
      "inputs": [
        {
          "name": "gameId",
          "type": "uint256"
        }
      ],
      "name": "getGameStartTime",
      "outputs": [
        {
          "name": "",
          "type": "uint256"
        }
      ],
      "payable": false,
      "stateMutability": "view",
      "type": "function"
    },
    {
      "constant": true,
      "inputs": [
        {
          "name": "gameId",
          "type": "uint256"
        }
      ],
      "name": "getUpAmount",
      "outputs": [
        {
          "name": "",
          "type": "uint256"
        }
      ],
      "payable": false,
      "stateMutability": "view",
      "type": "function"
    },
    {
      "constant": true,
      "inputs": [
        {
          "name": "gameId",
          "type": "uint256"
        }
      ],
      "name": "getDownAmount",
      "outputs": [
        {
          "name": "",
          "type": "uint256"
        }
      ],
      "payable": false,
      "stateMutability": "view",
      "type": "function"
    },
    {
      "constant": true,
      "inputs": [
        {
          "name": "gameId",
          "type": "uint256"
        }
      ],
      "name": "getResult",
      "outputs": [
        {
          "name": "",
          "type": "uint256"
        }
      ],
      "payable": false,
      "stateMutability": "view",
      "type": "function"
    },
    {
      "constant": true,
      "inputs": [
        {
          "name": "gameId",
          "type": "uint256"
        },
        {
          "name": "add",
          "type": "address"
        }
      ],
      "name": "getBetterPlay",
      "outputs": [
        {
          "name": "_result",
          "type": "uint256"
        }
      ],
      "payable": false,
      "stateMutability": "view",
      "type": "function"
    },
    {
      "constant": true,
      "inputs": [
        {
          "name": "gameId",
          "type": "uint256"
        },
        {
          "name": "add",
          "type": "address"
        }
      ],
      "name": "getBetterInvested",
      "outputs": [
        {
          "name": "_result",
          "type": "uint256"
        }
      ],
      "payable": false,
      "stateMutability": "view",
      "type": "function"
    },
    {
      "constant": true,
      "inputs": [
        {
          "name": "gameId",
          "type": "uint256"
        }
      ],
      "name": "getUpBettersCount",
      "outputs": [
        {
          "name": "",
          "type": "uint256"
        }
      ],
      "payable": false,
      "stateMutability": "view",
      "type": "function"
    },
    {
      "constant": true,
      "inputs": [
        {
          "name": "gameId",
          "type": "uint256"
        }
      ],
      "name": "getDownBettersCount",
      "outputs": [
        {
          "name": "",
          "type": "uint256"
        }
      ],
      "payable": false,
      "stateMutability": "view",
      "type": "function"
    },
    {
      "constant": true,
      "inputs": [],
      "name": "getBalance",
      "outputs": [
        {
          "name": "_balance",
          "type": "uint256"
        }
      ],
      "payable": false,
      "stateMutability": "view",
      "type": "function"
    },
    {
      "constant": true,
      "inputs": [],
      "name": "getContractBalance",
      "outputs": [
        {
          "name": "_contractBalance",
          "type": "uint256"
        }
      ],
      "payable": false,
      "stateMutability": "view",
      "type": "function"
    },
    {
      "constant": false,
      "inputs": [
        {
          "name": "gameId",
          "type": "uint256"
        },
        {
          "name": "bet",
          "type": "uint256"
        }
      ],
      "name": "betGame",
      "outputs": [
        {
          "name": "result",
          "type": "bool"
        }
      ],
      "payable": true,
      "stateMutability": "payable",
      "type": "function"
    },
    {
      "constant": false,
      "inputs": [
        {
          "name": "gameId",
          "type": "uint256"
        },
        {
          "name": "result",
          "type": "uint256"
        }
      ],
      "name": "setGameResult",
      "outputs": [
        {
          "name": "",
          "type": "bool"
        }
      ],
      "payable": false,
      "stateMutability": "nonpayable",
      "type": "function"
    },
    {
      "constant": false,
      "inputs": [],
      "name": "playerWithdraw",
      "outputs": [
        {
          "name": "",
          "type": "bool"
        }
      ],
      "payable": false,
      "stateMutability": "nonpayable",
      "type": "function"
    }
  ],
  "bytecode": "0x60806040526005600055605f60015534801561001a57600080fd5b5033600560006101000a81548173ffffffffffffffffffffffffffffffffffffffff021916908373ffffffffffffffffffffffffffffffffffffffff1602179055506114738061006b6000396000f3006080604052600436106100fc576000357c0100000000000000000000000000000000000000000000000000000000900463ffffffff168063117a5b901461010157806312065fe0146101735780634423d6541461019e5780635c0d6a7a146101ff5780636f9fb98a146102565780637596e071146102815780637b672b1d146102c257806383197ef01461031957806385ddf7f41461033057806388b8c48714610372578063995e4339146103a1578063b131d053146103e2578063b798df6414610423578063c0d27d1f14610464578063e161eae4146104b3578063e77c7913146104f4578063f2f6693c1461054d578063f85b6d9e1461058e575b600080fd5b34801561010d57600080fd5b5061012c600480360381019080803590602001909291905050506105ef565b604051808981526020018881526020018781526020018681526020018581526020018481526020018381526020018281526020019850505050505050505060405180910390f35b34801561017f57600080fd5b50610188610637565b6040518082815260200191505060405180910390f35b3480156101aa57600080fd5b506101e960048036038101908080359060200190929190803573ffffffffffffffffffffffffffffffffffffffff16906020019092919050505061067e565b6040518082815260200191505060405180910390f35b34801561020b57600080fd5b50610240600480360381019080803573ffffffffffffffffffffffffffffffffffffffff1690602001909291905050506106d0565b6040518082815260200191505060405180910390f35b34801561026257600080fd5b5061026b6106e8565b6040518082815260200191505060405180910390f35b34801561028d57600080fd5b506102ac60048036038101908080359060200190929190505050610707565b6040518082815260200191505060405180910390f35b3480156102ce57600080fd5b506102d761073b565b604051808273ffffffffffffffffffffffffffffffffffffffff1673ffffffffffffffffffffffffffffffffffffffff16815260200191505060405180910390f35b34801561032557600080fd5b5061032e610761565b005b61035860048036038101908080359060200190929190803590602001909291905050506107f8565b604051808215151515815260200191505060405180910390f35b34801561037e57600080fd5b50610387610a9a565b604051808215151515815260200191505060405180910390f35b3480156103ad57600080fd5b506103cc60048036038101908080359060200190929190505050610bd2565b6040518082815260200191505060405180910390f35b3480156103ee57600080fd5b5061040d60048036038101908080359060200190929190505050610c06565b6040518082815260200191505060405180910390f35b34801561042f57600080fd5b5061044e60048036038101908080359060200190929190505050610c3a565b6040518082815260200191505060405180910390f35b34801561047057600080fd5b506104996004803603810190808035906020019092919080359060200190929190505050610c6e565b604051808215151515815260200191505060405180910390f35b3480156104bf57600080fd5b506104de60048036038101908080359060200190929190505050611021565b6040518082815260200191505060405180910390f35b34801561050057600080fd5b50610533600480360381019080803590602001909291908035906020019092919080359060200190929190505050611055565b604051808215151515815260200191505060405180910390f35b34801561055957600080fd5b5061057860048036038101908080359060200190929190505050611199565b6040518082815260200191505060405180910390f35b34801561059a57600080fd5b506105d960048036038101908080359060200190929190803573ffffffffffffffffffffffffffffffffffffffff1690602001909291905050506111cd565b6040518082815260200191505060405180910390f35b60036020528060005260406000206000915090508060000154908060010154908060020154908060030154908060040154908060050154908060060154908060070154905088565b6000600460003373ffffffffffffffffffffffffffffffffffffffff1673ffffffffffffffffffffffffffffffffffffffff16815260200190815260200160002054905090565b60008060008411151561069057600080fd5b61069a848461121f565b90506003600085815260200190815260200160002060080160008281526020019081526020016000206001015491505092915050565b60046020528060005260406000206000915090505481565b60003073ffffffffffffffffffffffffffffffffffffffff1631905090565b60008060008311151561071957600080fd5b6003600084815260200190815260200160002060040154905080915050919050565b600560009054906101000a900473ffffffffffffffffffffffffffffffffffffffff1681565b600560009054906101000a900473ffffffffffffffffffffffffffffffffffffffff1673ffffffffffffffffffffffffffffffffffffffff163373ffffffffffffffffffffffffffffffffffffffff161415156107bd57600080fd5b600560009054906101000a900473ffffffffffffffffffffffffffffffffffffffff1673ffffffffffffffffffffffffffffffffffffffff16ff5b6000806000806000806000881180156108115750600087115b801561081d5750600387105b151561082857600080fd5b600560009054906101000a900473ffffffffffffffffffffffffffffffffffffffff1673ffffffffffffffffffffffffffffffffffffffff163373ffffffffffffffffffffffffffffffffffffffff161415151561088557600080fd5b600360008981526020019081526020016000209450600085600301541415156108ad57600080fd5b4285600201541115156108bf57600080fd5b60009350600092506108d088611312565b915060008214156108e45760019350610978565b6108ee883361121f565b92503373ffffffffffffffffffffffffffffffffffffffff1685600801600085815260200190815260200160002060000160009054906101000a900473ffffffffffffffffffffffffffffffffffffffff1673ffffffffffffffffffffffffffffffffffffffff1614156109655760009350610977565b600083141561097657600193508192505b5b5b8460080160008481526020019081526020016000209050338160000160006101000a81548173ffffffffffffffffffffffffffffffffffffffff021916908373ffffffffffffffffffffffffffffffffffffffff1602179055506109e081600101543461135f565b8160010181905550831515610a0657868160020154141515610a0157600080fd5b610a10565b8681600201819055505b6001871415610a4f57610a2785600401543461135f565b85600401819055508315610a4a5784600601600081548092919060010191905055505b610a8b565b6002871415610a8a57610a6685600501543461135f565b85600501819055508315610a895784600701600081548092919060010191905055505b5b5b60019550505050505092915050565b600080600260009054906101000a900460ff1615610ab757600080fd5b6001600260006101000a81548160ff021916908315150217905550600460003373ffffffffffffffffffffffffffffffffffffffff1673ffffffffffffffffffffffffffffffffffffffff168152602001908152602001600020549050600081111515610b2357600080fd5b6000600460003373ffffffffffffffffffffffffffffffffffffffff1673ffffffffffffffffffffffffffffffffffffffff168152602001908152602001600020819055503373ffffffffffffffffffffffffffffffffffffffff166108fc829081150290604051600060405180830381858888f19350505050158015610bae573d6000803e3d6000fd5b50600191506000600260006101000a81548160ff0219169083151502179055505090565b600080600083111515610be457600080fd5b6003600084815260200190815260200160002060030154905080915050919050565b600080600083111515610c1857600080fd5b6003600084815260200190815260200160002060010154905080915050919050565b600080600083111515610c4c57600080fd5b6003600084815260200190815260200160002060050154905080915050919050565b600080600080600080600080610c826113c9565b600080600560009054906101000a900473ffffffffffffffffffffffffffffffffffffffff1673ffffffffffffffffffffffffffffffffffffffff163373ffffffffffffffffffffffffffffffffffffffff16141515610ce157600080fd5b60008d118015610cf1575060008c115b8015610cfd575060048c105b1515610d0857600080fd5b600360008e8152602001908152602001600020995060008a60030154141515610d3057600080fd5b8b8a60030181905550600098506000975060018c1415610d5d578960050154985089600401549750610d76565b60028c1415610d755789600401549850896005015497505b5b610d8189606461137b565b9650610d8f87600054611391565b9550610dfc60046000600560009054906101000a900473ffffffffffffffffffffffffffffffffffffffff1673ffffffffffffffffffffffffffffffffffffffff1673ffffffffffffffffffffffffffffffffffffffff168152602001908152602001600020548761135f565b60046000600560009054906101000a900473ffffffffffffffffffffffffffffffffffffffff1673ffffffffffffffffffffffffffffffffffffffff1673ffffffffffffffffffffffffffffffffffffffff16815260200190815260200160002081905550610e6d87600154611391565b9450600093505b610e868a600601548b6007015461135f565b84101561100d57896008016000858152602001908152602001600020606060405190810160405290816000820160009054906101000a900473ffffffffffffffffffffffffffffffffffffffff1673ffffffffffffffffffffffffffffffffffffffff1673ffffffffffffffffffffffffffffffffffffffff1681526020016001820154815260200160028201548152505092508b8360400151148015610f31575060008360200151115b8015610f3d5750600085115b1561100057610f59610f53846020015187611391565b8961137b565b9150610f6983602001518361135f565b9050610fb860046000856000015173ffffffffffffffffffffffffffffffffffffffff1673ffffffffffffffffffffffffffffffffffffffff168152602001908152602001600020548261135f565b60046000856000015173ffffffffffffffffffffffffffffffffffffffff1673ffffffffffffffffffffffffffffffffffffffff168152602001908152602001600020819055505b8380600101945050610e74565b60019a505050505050505050505092915050565b60008060008311151561103357600080fd5b6003600084815260200190815260200160002060070154905080915050919050565b600061105f611401565b600560009054906101000a900473ffffffffffffffffffffffffffffffffffffffff1673ffffffffffffffffffffffffffffffffffffffff163373ffffffffffffffffffffffffffffffffffffffff161415156110bb57600080fd5b42841180156110c957508383115b15156110d457600080fd5b600085101515156110e457600080fd5b6101006040519081016040528086815260200185815260200184815260200160008152602001600081526020016000815260200160008152602001600081525090508060036000878152602001908152602001600020600082015181600001556020820151816001015560408201518160020155606082015181600301556080820151816004015560a0820151816005015560c0820151816006015560e0820151816007015590505060019150509392505050565b6000806000831115156111ab57600080fd5b6003600084815260200190815260200160002060060154905080915050919050565b6000806000841115156111df57600080fd5b6111e9848461121f565b90506003600085815260200190815260200160002060080160008281526020019081526020016000206002015491505092915050565b6000806000808511151561123257600080fd5b6112686003600087815260200190815260200160002060060154600360008881526020019081526020016000206007015461135f565b9150600090505b8181101561130a578373ffffffffffffffffffffffffffffffffffffffff1660036000878152602001908152602001600020600801600083815260200190815260200160002060000160009054906101000a900473ffffffffffffffffffffffffffffffffffffffff1673ffffffffffffffffffffffffffffffffffffffff1614156112fd5780925061130a565b808060010191505061126f565b505092915050565b6000808211151561132257600080fd5b6113586003600084815260200190815260200160002060060154600360008581526020019081526020016000206007015461135f565b9050919050565b6000818301905082811015151561137257fe5b80905092915050565b6000818381151561138857fe5b04905092915050565b6000808314156113a457600090506113c3565b81830290508183828115156113b557fe5b041415156113bf57fe5b8090505b92915050565b606060405190810160405280600073ffffffffffffffffffffffffffffffffffffffff16815260200160008152602001600081525090565b61010060405190810160405280600081526020016000815260200160008152602001600081526020016000815260200160008152602001600081526020016000815250905600a165627a7a72305820c0ee610f325967a7e26d1ab8eb13d80d16364cf186de3cba3e803671eb73b4090029",
  "source": "pragma solidity ^0.4.23;\n\n/**\n* @title SafeMath\n* @dev Math operations with safety checks that throw on error\n*/\nlibrary SafeMath {\n\n  /**\n  * @dev Multiplies two numbers, throws on overflow.\n  */\n  function mul(uint256 a, uint256 b) internal pure returns (uint256 c) {\n    // Gas optimization: this is cheaper than asserting 'a' not being zero, but the\n    // benefit is lost if 'b' is also tested.\n    // See: https://github.com/OpenZeppelin/openzeppelin-solidity/pull/522\n    if (a == 0) {\n      return 0;\n    }\n\n    c = a * b;\n    assert(c / a == b);\n    return c;\n  }\n\n  /**\n  * @dev Integer division of two numbers, truncating the quotient.\n  */\n  function div(uint256 a, uint256 b) internal pure returns (uint256) {\n    // assert(b > 0); // Solidity automatically throws when dividing by 0\n    // uint256 c = a / b;\n    // assert(a == b * c + a % b); // There is no case in which this doesn't hold\n    return a / b;\n  }\n\n  /**\n  * @dev Subtracts two numbers, throws on overflow (i.e. if subtrahend is greater than minuend).\n  */\n  function sub(uint256 a, uint256 b) internal pure returns (uint256) {\n    assert(b <= a);\n    return a - b;\n  }\n\n  /**\n  * @dev Adds two numbers, throws on overflow.\n  */\n  function add(uint256 a, uint256 b) internal pure returns (uint256 c) {\n    c = a + b;\n    assert(c >= a);\n    return c;\n  }\n}\n\ncontract BinaryOption {\n\n  /**\n  * Private variables\n  */\n  uint256 private developerShare = 5; // 开发者抽成 5%\n  uint256 private winnerShare = 95; // 剩余的95%全部是赢家瓜分\n  bool locked; // FOR MODIFIER\n\n  /**\n  * Storage\n  */\n  mapping (uint256 => Game) public games;\n  mapping (address => uint256) public gameBank;\n  address public contractModifier;\n\n  /**\n  * Constructor\n  * Define contract modifier, developer address.\n  * Initialize values.\n  */\n  constructor() public {\n    contractModifier = msg.sender;\n  }\n\n  /**\n  * Data structure\n  */\n  struct Game {\n    uint256 gameId;\n    uint256 startTime;\n    uint256 endTime;\n    uint256 result; // 0->NOT SET, 1->UP, 2->DOWN, 3->TIE\n    uint256 upPoolAmount;\n    uint256 downPoolAmount;\n    uint256 upBettersCount;\n    uint256 downBettersCount;\n    mapping(uint256 => Better) betters;\n  }\n\n  struct Better {\n    address add;\n    uint256 investedAmount;\n    uint256 bet; // 1->UP, 2->DOWN\n  }\n\n  /**\n  * Modifier\n  */\n  modifier onlyContractModifier() {\n    require(msg.sender == contractModifier);\n    _;\n  }\n\n  modifier noReentrancy() {\n    if(locked) revert();\n    locked = true;\n    _;\n    locked = false;\n  }\n\n  /**\n  * Events\n  */\n  //event test_value(uint256 indexed value1);\n\n  /**\n  * Public functions\n  */\n\n  // Fallback\n  function () public payable {\n    revert();\n  }\n\n  function destroy() public onlyContractModifier {\n    selfdestruct(contractModifier);\n  }\n\n  // Create games 创建游戏，gameId为当天日期，如20181228，startTime是开始时间，endTime为结束时间\n  // 开始时间必须大于now，结束时间必须大于开始时间\n  function addGame(uint256 gameId, uint256 startTime, uint256 endTime) public onlyContractModifier returns (bool result) {\n    require(startTime > now && endTime > startTime);\n    require(gameId >= 0);\n    Game memory _game = Game(gameId, startTime, endTime, 0, 0, 0, 0, 0);\n    games[gameId] = _game;\n    return true;\n  }\n  // 获取某场游戏的开始时间\n  function getGameStartTime(uint256 gameId) public constant returns(uint256) {\n    require(gameId > 0);\n    uint256 result = games[gameId].startTime;\n    return result;\n  }\n  // 获取某场游戏的看涨总额\n  function getUpAmount(uint256 gameId) public constant returns(uint256) {\n    require(gameId > 0);\n    uint256 result = games[gameId].upPoolAmount;\n    return result;\n  }\n  // 获取某场游戏的看跌总额\n  function getDownAmount(uint256 gameId) public constant returns(uint256) {\n    require(gameId > 0);\n    uint256 result = games[gameId].downPoolAmount;\n    return result;\n  }\n  // 获取某场游戏的结果\n  function getResult(uint256 gameId) public constant returns(uint256) {\n    require(gameId > 0);\n    uint256 result = games[gameId].result;\n    return result;\n  }\n  // 获取某场游戏某个玩家的下注 - 看涨或看跌\n  function getBetterPlay(uint256 gameId, address add) public view returns (uint256 _result) {\n    require(gameId > 0);\n    uint256 index = getBetterIndex(gameId, add);\n    _result = games[gameId].betters[index].bet;\n  }\n  // 获取某场游戏某个玩家的下注金额\n  function getBetterInvested(uint256 gameId, address add) public view returns (uint256 _result) {\n    require(gameId > 0);\n    uint256 index = getBetterIndex(gameId, add);\n    _result = games[gameId].betters[index].investedAmount;\n  }\n  // 获取某场游戏的看涨的人数\n  function getUpBettersCount(uint256 gameId) public constant returns(uint256) {\n    require(gameId > 0);\n    uint256 result = games[gameId].upBettersCount;\n    return result;\n  }\n  // 获取某场游戏的看跌的人数\n  function getDownBettersCount(uint256 gameId) public constant returns(uint256) {\n    require(gameId > 0);\n    uint256 result = games[gameId].downBettersCount;\n    return result;\n  }\n  // 获取玩家的余额\n  function getBalance() public view returns (uint256 _balance) {\n    _balance = gameBank[msg.sender];\n  }\n  // 获取本合约的余额\n  function getContractBalance() public view returns (uint256 _contractBalance) {\n    _contractBalance = address(this).balance;\n  }\n\n  // 获取某场游戏的详情\n/*\n  function getGameDetails(uint256 gameId) public constant returns (uint256[]) {\n    require(gameId > 0);\n    Game memory _game = games[gameId];\n\n    uint256[] memory data = new uint256[](8);\n    data[0] = _game.gameId;\n    data[1] = _game.startTime;\n    data[2] = _game.endTime;\n    data[3] = _game.result;\n    data[4] = _game.upPoolAmount;\n    data[5] = _game.downPoolAmount;\n    data[6] = _game.upBettersCount;\n    data[7] = _game.downBettersCount;\n\n    return data;\n  }\n*/\n\n  // 玩家下注游戏，， gameID为要下注的游戏id，即当日日期，bet为要下的注，1为看涨，2为看跌\n  function betGame(uint256 gameId, uint256 bet) public payable returns(bool result) {\n    require(gameId > 0 && bet > 0 && bet < 3);\n    // require(msg.value > 0 && msg.value > 100 && msg.value < 10000);\n    require(msg.sender != contractModifier);\n\n    Game storage _game = games[gameId];\n    require(_game.result == 0);\n    require(_game.endTime > now);\n\n    bool isNewBetter = false;\n    uint256 index = 0; // Better index\n    uint256 total = getBetterTotal(gameId);\n\n    if(total == 0) {\n      isNewBetter = true;\n\n    } else {\n      index = getBetterIndex(gameId, msg.sender); // get existing better\n\n      if (_game.betters[index].add == msg.sender) {\n        isNewBetter = false;\n      } else if (index == 0) {\n        isNewBetter = true;\n        index = total;\n      }\n    }\n\n    Better storage _better = _game.betters[index];\n    _better.add = msg.sender;\n    _better.investedAmount = SafeMath.add(_better.investedAmount, msg.value);\n\n    if (!isNewBetter) {\n      require(_better.bet == bet); //only can bet UP or DOWN\n    } else {\n      _better.bet = bet;\n    }\n\n    if(bet == 1) {\n      _game.upPoolAmount = SafeMath.add(_game.upPoolAmount, msg.value);\n      if (isNewBetter) {\n        _game.upBettersCount++;\n      }\n    } else if(bet == 2) {\n      _game.downPoolAmount = SafeMath.add(_game.downPoolAmount, msg.value);\n      if (isNewBetter) {\n        _game.downBettersCount++;\n      }\n    }\n    return true;\n  }\n\n  // Set game result and distribute prizes\n  // 紧限合约创建者使用，上报游戏结果。 该函数会合理计算并分配奖金。\n  function setGameResult(uint256 gameId, uint256 result) public onlyContractModifier returns(bool) {\n     require(gameId > 0 && result > 0 && result < 4);\n     Game storage _game = games[gameId];\n\n     require(_game.result == 0);\n     _game.result = result;\n\n     // Winners profit = losers invested\n     uint256 profit = 0;\n     uint256 winnersTotalInvested = 0;\n     if (result == 1){\n       profit = _game.downPoolAmount;\n       winnersTotalInvested = _game.upPoolAmount;\n     } else if (result == 2){\n       profit = _game.upPoolAmount;\n       winnersTotalInvested = _game.downPoolAmount;\n     }\n\n     uint256 onePercent = SafeMath.div(profit, 100);\n     uint256 developerProfit = SafeMath.mul(onePercent, developerShare);\n     gameBank[contractModifier] = SafeMath.add(gameBank[contractModifier], developerProfit);\n\n     uint256 winnersProfit = SafeMath.mul(onePercent, winnerShare);\n\n     for(uint256 i = 0; i < SafeMath.add(_game.upBettersCount, _game.downBettersCount); i++) {\n       Better memory better = _game.betters[i];\n\n       // Winner profit = (winner invest / all winners invested) * winners profit\n       if(better.bet == result && better.investedAmount > 0 && winnersProfit > 0){\n         uint256 _gain = SafeMath.div(SafeMath.mul(better.investedAmount, winnersProfit), winnersTotalInvested);\n         uint256 _balance = SafeMath.add(better.investedAmount, _gain);\n         gameBank[better.add] = SafeMath.add(gameBank[better.add], _balance);\n       }\n     }\n     return true;\n  }\n  // 玩家把自己的合约的余额转账到钱包地址\n  function playerWithdraw() external noReentrancy returns(bool) {\n    uint256 refund = gameBank[msg.sender];\n    require (refund > 0);\n    gameBank[msg.sender] = 0;\n    msg.sender.transfer(refund);\n    return true;\n  }\n\n  /**\n   * Private functions\n   */\n  function getBetterTotal(uint256 gameId) private view returns (uint256 result) {\n    require(gameId > 0);\n    result = SafeMath.add(games[gameId].upBettersCount, games[gameId].downBettersCount);\n  }\n\n  function getBetterIndex(uint256 gameId, address add) private view returns (uint256 result) {\n    require(gameId > 0);\n    uint256 betterCount = SafeMath.add(games[gameId].upBettersCount, games[gameId].downBettersCount);\n    for(uint256 i = 0; i < betterCount; i++){\n      if(games[gameId].betters[i].add == add){\n        result = i;\n        break;\n      }\n    }\n  }\n}\n",
  "sourcePath": "/Users/zhicai/Projects/TRON/test/BO/contracts/BinaryOption.sol",
  "compiler": {
    "name": "solc",
    "version": "0.4.24-develop.2018.8.28+commit.3ba0cdec.mod.Emscripten.clang"
  },
  "schemaVersion": "2.0.1",
  "updatedAt": "2019-01-03T06:36:54.513Z"
}